{
  "contractName": "Lottery",
  "abi": [
    {
      "inputs": [],
      "stateMutability": "nonpayable",
      "type": "constructor"
    },
    {
      "anonymous": false,
      "inputs": [
        {
          "indexed": false,
          "internalType": "address",
          "name": "_to",
          "type": "address"
        }
      ],
      "name": "fundsTransfered",
      "type": "event"
    },
    {
      "anonymous": false,
      "inputs": [],
      "name": "lotteryReset",
      "type": "event"
    },
    {
      "anonymous": false,
      "inputs": [
        {
          "indexed": false,
          "internalType": "address",
          "name": "_player",
          "type": "address"
        }
      ],
      "name": "playerEntered",
      "type": "event"
    },
    {
      "inputs": [
        {
          "internalType": "uint256",
          "name": "",
          "type": "uint256"
        }
      ],
      "name": "players",
      "outputs": [
        {
          "internalType": "address payable",
          "name": "",
          "type": "address"
        }
      ],
      "stateMutability": "view",
      "type": "function"
    },
    {
      "stateMutability": "payable",
      "type": "receive"
    },
    {
      "inputs": [],
      "name": "getBalance",
      "outputs": [
        {
          "internalType": "uint256",
          "name": "",
          "type": "uint256"
        }
      ],
      "stateMutability": "view",
      "type": "function"
    },
    {
      "inputs": [],
      "name": "pickWinner",
      "outputs": [],
      "stateMutability": "nonpayable",
      "type": "function"
    }
  ],
  "bytecode": "0x608060405234801561001057600080fd5b50336000806101000a81548173ffffffffffffffffffffffffffffffffffffffff021916908373ffffffffffffffffffffffffffffffffffffffff16021790555061081e806100606000396000f3fe6080604052600436106100385760003560e01c806312065fe0146101285780635d495aea14610153578063f71d96cb1461016a57610123565b366101235767016345785d8a00003414610087576040517f08c379a000000000000000000000000000000000000000000000000000000000815260040161007e90610537565b60405180910390fd5b6001339080600181540180825580915050600190039060005260206000200160009091909190916101000a81548173ffffffffffffffffffffffffffffffffffffffff021916908373ffffffffffffffffffffffffffffffffffffffff1602179055507f0d68fbe0bedd0f8f60a7d5e5e96fb664767e5b35946d5769b688671b4ed9c22a336040516101199190610598565b60405180910390a1005b600080fd5b34801561013457600080fd5b5061013d6101a7565b60405161014a91906105cc565b60405180910390f35b34801561015f57600080fd5b50610168610208565b005b34801561017657600080fd5b50610191600480360381019061018c9190610618565b6102e1565b60405161019e9190610666565b60405180910390f35b60008060009054906101000a900473ffffffffffffffffffffffffffffffffffffffff1673ffffffffffffffffffffffffffffffffffffffff163373ffffffffffffffffffffffffffffffffffffffff161461020257600080fd5b47905090565b60008054906101000a900473ffffffffffffffffffffffffffffffffffffffff1673ffffffffffffffffffffffffffffffffffffffff163373ffffffffffffffffffffffffffffffffffffffff161461026057600080fd5b6003600180549050101561027357600080fd5b6000600180549050610283610320565b61028d91906106b0565b90506102d6600182815481106102a6576102a56106e1565b5b9060005260206000200160009054906101000a900473ffffffffffffffffffffffffffffffffffffffff1661035a565b6102de6103e2565b50565b600181815481106102f157600080fd5b906000526020600020016000915054906101000a900473ffffffffffffffffffffffffffffffffffffffff1681565b6000444260018054905060405160200161033c93929190610731565b6040516020818303038152906040528051906020012060001c905090565b8073ffffffffffffffffffffffffffffffffffffffff166108fc61037c6101a7565b9081150290604051600060405180830381858888f193505050501580156103a7573d6000803e3d6000fd5b507fc540f8cda4372d78f85ed4e90cae657326128a164931521308c735ff502f5b6b816040516103d791906107cd565b60405180910390a150565b60008054906101000a900473ffffffffffffffffffffffffffffffffffffffff1673ffffffffffffffffffffffffffffffffffffffff163373ffffffffffffffffffffffffffffffffffffffff161461043a57600080fd5b600160006104489190610476565b7fd24b62a863a54fb85cba8843be7406876d90dfff1dac941a0310919b64f924e160405160405180910390a1565b50805460008255906000526020600020908101906104949190610497565b50565b5b808211156104b0576000816000905550600101610498565b5090565b600082825260208201905092915050565b7f4c6f74746572793a20696e636f7272656374207061796d656e7420616d6f756e60008201527f7400000000000000000000000000000000000000000000000000000000000000602082015250565b60006105216021836104b4565b915061052c826104c5565b604082019050919050565b6000602082019050818103600083015261055081610514565b9050919050565b600073ffffffffffffffffffffffffffffffffffffffff82169050919050565b600061058282610557565b9050919050565b61059281610577565b82525050565b60006020820190506105ad6000830184610589565b92915050565b6000819050919050565b6105c6816105b3565b82525050565b60006020820190506105e160008301846105bd565b92915050565b600080fd5b6105f5816105b3565b811461060057600080fd5b50565b600081359050610612816105ec565b92915050565b60006020828403121561062e5761062d6105e7565b5b600061063c84828501610603565b91505092915050565b600061065082610557565b9050919050565b61066081610645565b82525050565b600060208201905061067b6000830184610657565b92915050565b7f4e487b7100000000000000000000000000000000000000000000000000000000600052601260045260246000fd5b60006106bb826105b3565b91506106c6836105b3565b9250826106d6576106d5610681565b5b828206905092915050565b7f4e487b7100000000000000000000000000000000000000000000000000000000600052603260045260246000fd5b6000819050919050565b61072b610726826105b3565b610710565b82525050565b600061073d828661071a565b60208201915061074d828561071a565b60208201915061075d828461071a565b602082019150819050949350505050565b6000819050919050565b600061079361078e61078984610557565b61076e565b610557565b9050919050565b60006107a582610778565b9050919050565b60006107b78261079a565b9050919050565b6107c7816107ac565b82525050565b60006020820190506107e260008301846107be565b9291505056fea264697066735822122017c21584a6cbd51c4135ad80f626b08dc63911ba1f2ac57b0b49996519764e1d64736f6c634300080a0033",
  "immutableReferences": {},
  "source": "// SPDX-License-Identifier: MIT\npragma solidity >=0.4.22 <0.9.0;\n\ncontract Lottery {\n    address private manager;\n    address payable[] public players;\n\n    modifier isManager() {\n        require(msg.sender == manager);\n        _;\n    }\n\n    event playerEntered(address _player);\n    event fundsTransfered(address _to);\n    event lotteryReset();\n\n    constructor() {\n        manager = msg.sender;\n    }\n\n    receive() external payable {\n        require(msg.value == 0.1 ether, \"Lottery: incorrect payment amount\");\n        players.push(payable(msg.sender));\n        emit playerEntered(msg.sender);\n    }\n\n    function getBalance() public view isManager returns (uint256) {\n        return address(this).balance;\n    }\n\n    function pickWinner() public isManager {\n        require(players.length >= 3);\n        uint256 index = random() % players.length;\n        transferFunds(payable(players[index]));\n        resetLottery();\n    }\n\n    function transferFunds(address payable _to) private {\n        _to.transfer(getBalance());\n        emit fundsTransfered(_to);\n    }\n\n    function resetLottery() private isManager {\n        delete players;\n        emit lotteryReset();\n    }\n\n    function random() private view returns (uint256) {\n        return\n            uint256(\n                keccak256(\n                    abi.encodePacked(\n                        block.difficulty,\n                        block.timestamp,\n                        players.length\n                    )\n                )\n            );\n    }\n}\n",
  "sourcePath": "/Users/julien.couvy/sample-contracts/simple-lottery/contracts/Lottery.sol",
  "compiler": {
    "name": "solc",
    "version": "0.8.10+commit.fc410830.Emscripten.clang"
  },
  "schemaVersion": "3.4.3",
  "updatedAt": "2021-12-02T06:34:13.077Z",
  "devdoc": {
    "kind": "dev",
    "methods": {},
    "version": 1
  },
  "userdoc": {
    "kind": "user",
    "methods": {},
    "version": 1
  }
}